:040000000CEF00F011
:10000800FACF47F0FBCF48F0E9CF49F05FED02F0B7
:04001800F9EF05F007
:10030000007E000410020000000000000000FFFE5C
:1003100000000000030100000002000000030000D4
:100320000000000E656E5D50D8B422D05CC057F05E
:100330005BC056F05D04586E2BEC06F0646EFF0E49
:10034000606EFF0E616E5D50626E636A6050622681
:100350006150632262505B24D96E63505C20DA6E78
:10036000DF506418D8B402D0000E01D0010E656EC3
:100370006550D8B4A2D05BC0D9FF5CC0DAFF5EC0C4
:10038000E1FF5FC0E2FFDFCFE7FF88D020EE01F0A2
:100390005B50D9265C50DA2210EE07F05E50E12661
:1003A0005F50E222DFCFE7FF20EE02F05B50D9265C
:1003B0005C50DA2210EE02F05E50E1265F50E2223D
:1003C000DFCFE7FF20EE03F05B50D9265C50DA2246
:1003D00010EE03F05E50E1265F50E222DFCFE7FF30
:1003E00020EE04F05B50D9265C50DA2210EE01F0CA
:1003F0005E50E1265F50E222DFCFE7FF20EE06F0FD
:100400005E50D9265F50DA225D50FA0FDF6E20EE83
:1004100006F05E50D9265F50DA22DF50D8A40BD008
:1004200020EE04F05E50D9265F50DA22000EDE6E18
:10043000000EDD6E42D0050E5B24606E000E5C2067
:10044000616E20EE04F05E50D9265F50DA2260C063
:10045000DEFF61C0DDFF31D020EE01F05B50D92618
:100460005C50DA2210EE01F05E50E1265F50E2228D
:10047000DFCFE7FF010E10D020EE05F05B50D9264C
:100480005C50DA2210EE01F05E50E1265F50E2226D
:10049000DFCFE7FF12D0000E656E0FD05BC0D9FF33
:1004A0005CC0DAFFDF50880AD8B470D7020AD8B42B
:1004B000D3D7010AD8B4E0D7EED7655012000600B2
:1004C000EACF4AF0E1CF4BF0E2CF4CF0D9CF4DF07C
:1004D000DACF4EF0F3CF4FF0F4CF50F0F6CF51F02B
:1004E000F7CF52F0F8CF53F0F5CF54F0010E9DA6A0
:1004F000000E9EA6000EE8A003D0466A462A01D050
:10050000466A4650D8B404D09E96010E1A6E59D051
:10051000010EF2AA000EF2A4000EE8A003D0466A73
:10052000462A01D0466A4650D8B404D0010E1C6E4B
:10053000F29447D0010E9DAC000E9EAC000EE8A0D8
:1005400003D0466A462A01D0466A4650D8B402D043
:100550009E9C37D0010E9DAA000E9EAA000EE8A018
:1005600003D0466A462A01D0466A4650D8B429D0FC
:10057000ABA405D00E2AAECF55F0FF0022D0ABA21F
:1005800005D00F2AAECF55F0AB981BD0320E175CBA
:10059000D8B014D01850010D0001800EF324D96E8C
:1005A0000001000EF420DA6EAECFDFFF182A310E04
:1005B000186402D0000E186E172A03D0102AAECF8E
:1005C00055F054C0F5FF53C0F8FF52C0F7FF51C0BB
:1005D000F6FF50C0F4FF4FC0F3FF4EC0DAFF4DC02E
:1005E000D9FF4CC0E2FF4BC0E1FF4AC0EAFF49C05F
:1005F000E9FF48C0FBFF47C0FAFF11003C0E116E37
:10060000000E126E000E136E000E1D6E000E1B6E9D
:10061000AEEC06F08CEC03F004EC07F0666E11D043
:10062000000E1B6EA3EC06F076EC06F076EC06F0FE
:1006300065D01B6663D0010E1B6E60D0B9EC06F06E
:100640005DD06650000AD8B4EBD7010AD8B4F1D710
:10065000030AD8B4F3D752D01D2A310E1D64DAD75D
:10066000000E1D6EFF00D6D7ECEC06F0010E112631
:10067000000E1222000E13223C0E115C000E1258C6
:10068000000E1358D8A008D0000E116E000E126E86
:10069000000E136E78EC05F040EC06F0676E6766AE
:1006A000B9D7030E23D0D1800300D190000E1ED005
:1006B00065EC06F058EC04F0676E676619D0899017
:1006C000BBEC05F056C05CF057C05DF0DEEC06F008
:1006D00053EC06F056C05AF057C05BF0E5EC06F05C
:1006E000A6EC04F076EC06F08980020E1B6E92D721
:1006F0006704D8A48FD7B9EC06F08CD71B50000A3A
:10070000D8B4AAD7010AD8B4AFD7030AD8B4CBD784
:10071000010AD8B4CDD77ED70001000E576E000174
:10072000B20E566E030E586EF2EC04F00001E66F46
:100730000001E651D8B424D00001B2517E0AD8A4F9
:100740001CD00001B3510001E56F0001B45100015C
:10075000E46F300E0001E45D000E0001E559D8B0F1
:100760000CD00001000E576E0001B50E566E000150
:10077000E429586EF2EC04F001D0000E0001E66F9F
:100780000001E651D8B413D00001000E5C6E0001E8
:10079000B50E5B6E0001E4295D6E0001000E5F6E18
:1007A0000001E70E5E6E91EC01F00001E66F0001C2
:1007B000E651D8A40BD01BD00001E851020AD8A4FE
:1007C00002D0010E01D0000E1F6E11D00001E751C2
:1007D000080AD8B40CD0180AD8B409D0980AD8B4EA
:1007E00006D0020AD8B4E8D7010AD8A41B0A12001E
:1007F0000F0ECD6E000E586E35D0000E196E520ED3
:10080000576E2A0EE82EFED7572EFCD70F0ECD6E50
:10081000CF68E70ECE6E9E9001D0192A9EA0FDD71C
:1008200019500008300F596E5950800A7F0FD8A018
:1008300009D0FE0E59265950800A7F0FD8A017D034
:100840009B280AD059500008020F596E5950800A4F
:100850007F0FD8A00CD09B041F0B9B6E190EE82EA7
:10086000FED7582A5850800A600FD8A0C6D75850D3
:10087000800A600FD8A019D0000E9B6E190EE82ECA
:10088000FED7B9EC06F0520E576E2A0EE82EFED7B0
:10089000572EFCD7B9EC06F0520E576E2A0EE82EF2
:1008A000FED7572EFCD7B9EC06F0000ECD6E120025
:1008B000000E596EFAEC06F0510EC96ECDEC06F042
:1008C000C5AC06D096EC06F000EC07F0010E3DD06A
:1008D000000E5A6E2BD0D6EC06F0C586CDEC06F095
:1008E0005A50010D0A0EF324D96E000EF420DA6E70
:1008F000C9CFDFFF5A660DD00AC057F0586A57BEFD
:10090000580657AC0CD0C58A030E5A6E010E596EAC
:1009100007D05A50030AD8A402D0C58A01D0C59A7C
:10092000D6EC06F0C588CDEC06F05A2A5A50800A5B
:100930007C0FD8A0D0D7D6EC06F000EC07F0590415
:10094000D8A402D0020E01D0000E1200000E576E85
:10095000200E566E030E596E010E586E000E5B6E21
:10096000200E5A6E9AEC05F0000E246E1EC032F076
:100970001E2A03C035F002C062F062C063F0646AF0
:100980006350366E01C037F006C039F005C062F022
:1009900062C063F0646A63503A6E04C03BF009C001
:1009A0003DF008C062F062C063F0646A63503E6E5E
:1009B00007C03FF0000E216E1D0E226E200E656EE8
:1009C000000E5C6E200E5B6E000E5E6E650E5D6E40
:1009D00022EC05F0000E576E200E566E6550DCECD2
:1009E00005F0120057C05AF056C059F05850175C25
:1009F000D8A024D0000E5C6E19D01650010D000155
:100A0000800EF324D96E0001000EF420DA6E59C076
:100A1000E1FF5AC0E2FFDFCFE7FF162A310E16646E
:100A200002D0000E166E594A5A2A5C2A58505C5C55
:100A3000D8A0E3D75850175E010E01D0000E5B6EB0
:100A40005B501200030E5B24566E000E5C20576E46
:100A50005B50030F00085F6E5DC0D9FF5EC0DAFF18
:100A6000DF50010DF3505F245B24586E2BEC06F031
:100A7000606E5DC0D9FF5EC0DAFFDF50616E61500D
:100A8000010DF3505B24D96EF4505C20DA6E60C027
:100A9000DFFF5DC0D9FF5EC0DAFFDF2A1200000E63
:100AA0009B6E400ED36E000E806E000E926E939081
:100AB0008190939681969398819894948294949A35
:100AC000829A8192939293849E9C9D8CFA0E00D080
:100AD000E82EFDD7F8EC03F013EC06F087EC06F0F7
:100AE000F28CF28E89928982FEEC02F00CEF00F01B
:100AF0008A82000EC16E200EC26E8B0EC06EC28046
:100B0000C282D38E0300D39EC2B2FED7C350C4CFDD
:100B100058F0596A58C059F0586A5810146E595014
:100B2000156E8A92C29014C056F015C057F0F3ECBF
:100B300006F0120059C05FF058C05EF057C05DF07B
:100B400056C05CF00FD05EC0F6FF5FC0F7FF5CC020
:100B5000D9FF5DC0DAFF0800F5CFDFFF5E4A5F2AEC
:100B60005C4A5D2A5A06D8A05B065A28D8B45B288E
:100B7000D8B41200E8D70C505A6E5B6A5ABE5B06B6
:100B80005A505B6E5A6A0D505A26000E0DBEFF0E6B
:100B90005B225AC058F05BC059F0D8905932583295
:100BA000D8905932583258C05AF059C05BF05AC0E8
:100BB00056F05BC057F012005A6E57C059F056C03D
:100BC00058F0000E5B6E0FD05B50010DF3505624B1
:100BD000D96EF4505720DA6EDF50AD6EACA2FED75E
:100BE000584A592A5B2A5A505B5CD8A0EDD700F0CE
:100BF000120000EE80F0640EEE6AE806FDE100EE01
:100C000001F0450EEE6AE806FDE10C0EF66E0E0EE2
:100C1000F76E000EF86E0900F5CF68F0000EF86E62
:100C200000014FEF05F0E70E94168B968B98080E97
:100C3000E82EFED700F0180E9412800EC76E010E3B
:100C4000C86E280EC66E000EC56E000E1A6E9E96F9
:100C5000A1969D8612005968000E5A6E0BD05A500C
:100C6000010DF3505624D96EF4505720DA6EDF5040
:100C7000595E5A2A58505A5CD8A0F1D759501200E0
:100C8000FAEC06F0500EC96ECDEC06F0C5AC04D0FF
:100C900096EC06F0010E06D0D6EC06F000EC07F05C
:100CA00000F0000E12003F0E0A14586E596A585098
:100CB000596E586A0B505826000E0BBEFF0E592273
:100CC00058C056F059C057F01200000ED76E000EF3
:100CD000D66E450ED56EF294F28AD58ED38E030071
:100CE000D39EC4EC06F0D59EF29A1200000ED76E89
:100CF000000ED66E470ED56EF294F28AD58ED38E44
:100D00000300D39EC4EC06F0D59EF29A1200948E96
:100D1000948C240EAC6E900EAB6E480EB86E000E26
:100D2000B06E0C0EAF6E9E9A9D8A120089868984E1
:100D3000210E566E760EE82EFED7562EFCD700D02A
:100D40008996899412008984210E566E760EE82EBB
:100D5000FED7562EFCD700D0899412008988210E28
:100D6000566E760EE82EFED7562EFCD700D0899808
:100D700012008986210E566E760EE82EFED7562E6C
:100D8000FCD700D089961200D38E0300D39E1C504E
:100D9000D8B4FDD7000E1C6E1200D38E0300D39E74
:100DA0001A50D8B4FDD7000E1A6E1200C5CF56F0F7
:100DB0001F0E5616D8B4C7B4F9D712005CC001F0A4
:100DC0005DC002F0030E036E12005AC004F05BC057
:100DD00005F0030E066E1200000E096E000E066E80
:100DE000000E036E120056C007F057C008F0030E45
:100DF000096E1200D6EC06F0C580CDEC06F01200AC
:0E0E0000C584CDEC06F012001F501200020057
:020000040020DA
:08000000FFFFFFFFFFFFFFFF00
:020000040030CA
:0E000000FF081F1CFF8301FF0FC00FE00F4021
:00000001FF
