:040000000CEF00F011
:10000800FACF02F0FBCF03F0E9CF04F0EAED00F0FD
:1000180024EF04F0000E206E1850D8B422D017C078
:1000280012F016C011F01804136E93EC04F01F6E52
:10003800FF0E1B6EFF0E1C6E18501D6E1E6A1B50A5
:100048001D261C501E221D501624D96E1E50172026
:10005800DA6EDF501F18D8B402D0000E01D0010E9E
:10006800206E2050D8B4B0D016C0D9FF17C0DAFF20
:1000780019C0E1FF1AC0E2FFDFCFE7FF96D020EEFC
:1000880001F01650D9261750DA2210EE07F0195051
:10009800E1261A50E222DFCFE7FF20EE02F01650E9
:1000A800D9261750DA2210EE02F01950E1261A501C
:1000B800E222DFCFE7FF20EE03F01650D9261750D3
:1000C800DA2210EE03F01950E1261A50E222DFCFAF
:1000D800E7FF20EE04F01650D9261750DA2210EE6A
:1000E80001F01950E1261A50E222DFCFE7FF20EE97
:1000F80006F01950D9261A50DA221850FA0FDF6E76
:1001080020EE06F01950D9261A50DA22DF50D8A46A
:100118000BD020EE04F01950D9261A50DA22000E1E
:10012800DE6E000EDD6E50D0050E16241B6E000E1E
:1001380017201C6E20EE04F01950D9261A50DA2226
:100148001BC0DEFF1CC0DDFF3FD020EE01F01650C3
:10015800D9261750DA2210EE01F01950E1261A506C
:10016800E222DFCFE7FF010E1ED020EE01F016508D
:10017800D9261750DA2210EE07F01950E1261A5046
:10018800E222DFCFE7FF20EE05F01650D926175000
:10019800DA2210EE01F01950E1261A50E222DFCFE0
:1001A800E7FF12D0000E206E0FD016C0D9FF17C07F
:1001B800DAFFDF50880AD8B462D7020AD8B4C5D7A4
:1001C800010AD8B4D2D7EED7205012000600EACFE1
:1001D80005F0E1CF06F0E2CF07F0D9CF08F0DACF8B
:1001E80009F0F3CF0AF0F4CF0BF0F6CF0CF0F7CF0D
:1001F8000DF0F8CF0EF0F5CF0FF0010E9DA6000E12
:100208009EA6000EE8A003D0016A012A01D0016A67
:100218000150D8B404D09E96010E686E59D0010ED4
:10022800F2AA000EF2A4000EE8A003D0016A012A87
:1002380001D0016A0150D8B404D0010E6A6EF2945C
:1002480047D0010E9DAC000E9EAC000EE8A003D076
:10025800016A012A01D0016A0150D8B402D09E9CDB
:1002680037D0010E9DAA000E9EAA000EE8A003D06A
:10027800016A012A01D0016A0150D8B429D0ABA47F
:1002880005D05C2AAECF10F0FF0022D0ABA205D07B
:100298005D2AAECF10F0AB981BD0320E655CD8B09B
:1002A80014D06650010D0001800EF324D96E0001B0
:1002B800000EF420DA6EAECFDFFF662A310E6664D8
:1002C80002D0000E666E652A03D05E2AAECF10F00B
:1002D8000FC0F5FF0EC0F8FF0DC0F7FF0CC0F6FF0A
:1002E8000BC0F4FF0AC0F3FF09C0DAFF08C0D9FF4A
:1002F80007C0E2FF06C0E1FF05C0EAFF04C0E9FF4E
:1003080003C0FBFF02C0FAFF1100F00E5F6E000E83
:10031800606E000E616E000E6B6E000E6D6E000E4C
:10032800696E100EFEEC04F027EC02F05CEC05F0B0
:100338002C6E0DD0000E6D6E000E696E8990BCECAF
:1003480004F0BCEC04F077D0010E6D6E74D02C5024
:10035800000AD8B4EFD7010AD8B4F6D76CD03FEC6E
:1003680005F0010E5F26000E6022000E6122F00EDD
:100378005F5C000E6058000E6158D8A008D0000ECF
:100388005F6E000E606E000E616E00EC04F0A8EC6B
:1003980004F02D6E2D6602D0020E32D0140EFEEC43
:1003A80004F0C2D7CDEC04F0F1EC02F02D6E2D660E
:1003B80005D08990BCEC04F0030E22D02D04D8A4FB
:1003C800B3D7080EFEEC04F01AD07CEC04F011C090
:1003D80017F012C018F031EC05F00DEC05F011C063
:1003E80015F012C016F038EC05F03BEC03F053ECB6
:1003F80005F0010E05D08980D1800300D190000E50
:10040800696E92D76950000AD8B4A9D7010AD8B43E
:10041800F2D7030AD8B4C6D7010AD8B4D6D784D736
:100428006B2A630E6B6480D7000E6B6E8980D18057
:100438000300D19079D76D50000AD8B4F1D7010ADA
:10044800D8B4E0D7EDD70001000E126E0001B20E4D
:10045800116E030E136E79EC03F0236E2350D8B49B
:100468001ED00001B2517E0AD8A417D00001B351A2
:10047800226E0001B451216E300E215C000E22580C
:10048800D8B00BD00001000E126E0001B50E116E2F
:100498002128136E79EC03F001D0000E236E23504F
:1004A800D8B40FD00001000E176E0001B50E166EFD
:1004B8002128186E000E1A6E240E196E0EEC00F02C
:1004C800236E2350D8A415D024D02550020AD8A4CE
:1004D80006D0010E6E6E100EFEEC04F01AD02550F8
:1004E800030AD8A416D0000E6E6E080EFEEC04F0B7
:1004F80010D02450080AD8B40CD0180AD8B409D09F
:10050800980AD8B406D0020AD8B4DFD7010AD8A40A
:100518001B0A12000F0ECD6E000E146E35D0000EA1
:10052800676E520E136E2A0EE82EFED7132EFCD7D6
:100538000F0ECD6ECF68E70ECE6E9E9001D0672A63
:100548009EA0FDD767500008300F156E1550800A21
:100558007F0FD8A009D0FE0E15261550800A7F0FF0
:10056800D8A017D09B280AD015500008020F156E86
:100578001550800A7F0FD8A00CD09B041F0B9B6ED0
:10058800190EE82EFED7142A1450800A600FD8A03E
:10059800C6D71450800A600FD8A01CD0000E9B6EDE
:1005A800190EE82EFED7080EFEEC04F0520E136E5C
:1005B8002A0EE82EFED7132EFCD7080EFEEC04F008
:1005C800520E136E2A0EE82EFED7132EFCD7080EF5
:1005D800FEEC04F0000ECD6E1200000E136E4DEC12
:1005E80005F0510EC96E20EC05F0C5AC07D00C0E15
:1005F800FEEC04F058EC05F0010E38D0000E146E35
:1006080026D029EC05F0C58620EC05F01450010D24
:10061800580EF324D96E000EF420DA6EC9CFDFFF2E
:10062800146608D058AC0CD0C58A030E146E010E9F
:10063800136E07D01450030AD8A402D0C58A01D07B
:10064800C59A29EC05F0C58820EC05F0142A145049
:10065800800A7C0FD8A0D5D729EC05F058EC05F016
:100668001304D8A402D0020E01D0000E1200000E0E
:10067800326E6CC040F06C2A51C043F050C01DF07F
:100688001DC01EF01F6A1E50446E4FC045F054C076
:1006980047F053C01DF01DC01EF01F6A1E50486E63
:1006A80052C049F057C04BF056C01DF01DC01EF097
:1006B8001F6A1E504C6E55C04DF0000E2F6E1D0E59
:1006C800306E200E206E000E176E2E0E166E000E67
:1006D800196E200E186EA9EC03F0000E126E2E0E85
:1006E800116E205045EC04F0120012C015F011C034
:1006F80014F01350655CD8A024D0000E176E19D0E2
:100708006450010D0001800EF324D96E0001000E23
:10071800F420DA6E14C0E1FF15C0E2FFDFCFE7FF77
:10072800642A310E646402D0000E646E144A152ADD
:10073800172A1350175CD8A0E3D71350655E010E33
:1007480001D0000E166E16501200030E1624116EFC
:10075800000E1720126E1650030F00081A6E18C0EC
:10076800D9FF19C0DAFFDF50010DF3501A241624FF
:10077800136E93EC04F01B6E18C0D9FF19C0DAFF92
:10078800DF501C6E1C50010DF3501624D96EF45026
:100798001720DA6E1BC0DFFF18C0D9FF19C0DAFFB7
:1007A800DF2A1200000E9B6E400ED36E000E806E84
:1007B800000E926E9390819093968196939881986B
:1007C80094948294949A829A8192939293849E9C10
:1007D8009D8CFA0E00D0E82EFDD78EEC02F064EC6A
:1007E80004F0EFEC04F0F28CF28E89908992898201
:1007F80089EC01F00CEF00F08A82000EC16E200E29
:10080800C26E8B0EC06EC280C282D38E0300D39E8E
:1008180001D000F0C2B2FDD7C350C4CF13F0146AA0
:1008280013C014F0136A1310626E1450636E8A9228
:10083800C29062C011F063C012F046EC05F01200DD
:1008480000EE80F0640EEE6AE806FDE100EE4FF07F
:10085800200EEE6AE806FDE1BC0EF66E090EF76E94
:10086800000EF86E00EE2EF010EE21F00900F5CF24
:10087800EEFFE550E150FAE1000EF86E0001D6EF08
:1008880003F0156E12C014F011C013F0000E166EAE
:1008980011D01650010DF3501124D96EF4501220C6
:1008A800DA6EDF50AD6E01D000F0ACA2FDD7134A6E
:1008B800142A162A1550165CD8A0EBD700F012009F
:1008C800E70E94168B968B98080EE82EFED700F04C
:1008D800180E9412800EC76E010EC86E280EC66ED2
:1008E800000EC56E000E686E9E96A1969D8612003B
:1008F8005A50166E5B50156E15C013F016C014F0E2
:10090800D89014321332D8901432133213C015F021
:1009180014C016F015C011F016C012F012001468B9
:10092800000E156E0BD01550010DF3501124D96E21
:10093800F4501220DA6EDF50145E152A1350155C3D
:10094800D8A0F1D7145012004DEC05F0500EC96E26
:1009580020EC05F0C5AC05D00C0EFEEC04F0010E41
:1009680006D029EC05F058EC05F000F0000E120056
:10097800000ED76E000ED66E470ED56EF294F28A30
:10098800D58ED38E0300D39E17EC05F0D59EF29A30
:100998001200000ED76E000ED66E450ED56EF2947C
:1009A800F28AD58ED38E0300D39E17EC05F0D59E20
:1009B800F29A12007E0004100200000000000000FD
:1009C80000FFFE000000000301000000020000001C
:1009D800030000000000948E948C240EAC6E900EE0
:1009E800AB6E480EB86E000EB06E0C0EAF6E9E9ACF
:1009F8009D8A1200126E12508912210E116E760E07
:100A0800E82EFED7112EFCD700D01250FF0A891607
:100A1800120058503F0B146E5950136E13C011F04A
:100A280014C012F01200D38E0300D39E6A50D8B4BB
:100A3800FDD7000E6A6E1200D38E0300D39E685055
:100A4800D8B4FDD7000E686E1200C5CF11F01F0E86
:100A58001116D8B4C7B4F9D7120017C04FF018C090
:100A680050F0030E516E120015C052F016C053F02C
:100A7800030E546E1200000E576E000E546E000ED8
:100A8800516E120011C055F012C056F0030E576E89
:100A9800120029EC05F0C58020EC05F01200BCEC32
:100AA80004F0BCEC04F01200C58420EC05F0120040
:040AB8006E5012006A
:020000040020DA
:08000000FFFFFFFFFFFFFFFF00
:020000040030CA
:0E000000FF081F1CFF8301FF0FC00FE00F4021
:00000001FF
