:040000000CEF00F011
:10000800FACF02F0FBCF03F0E9CF04F0E7ED01F0FF
:1000180049EF05F00001DD6F000E0001D86F000EFA
:100028000001D96F000E0001DA6F000E0001DB6FCE
:100038000001DD51120D100EF326000EF42200010E
:10004800B20EF324D96E0001000EF420DA6E070E0A
:10005800DF6411D00001DD51120D100EF326000EE1
:10006800F4220001B20EF324D96E0001000EF42030
:10007800DA6E000EDF6E0001DD51120DB20E206E39
:10008800000E216EF3502026F45021220001DD518C
:10009800120D100EF326000EF4220001B20EF32406
:1000A800D96E0001000EF420DA6EDF50226E225065
:1000B800020DF3502024D96EF4502120DA6E1EC0B0
:1000C800DEFF1FC0DDFF0001DD51120D100EF3260B
:1000D800000EF4220001B20EF324D96E0001000EC6
:1000E800F420DA6EDF2A0001DD51120D110EF3261D
:1000F800000EF4220001B20EF324D96E0001000EA6
:10010800F420DA6EDF50206E080E205CD8B010D0D4
:100118000001DD51120D110EF326000EF42200012C
:10012800B20EF324D96E0001000EF420DA6EDF2A35
:10013800000E0001DC6F26D00001DD51120DB20E59
:10014800206E000E216EF3502026F450212200016B
:10015800DC51020DF3502024D96EF4502120DA6EC0
:10016800DECF22F0DDCF23F022500001D827235024
:100178000001D923000E0001DA23000E0001DB2361
:100188000001DC2B0001DD51120D110EF326000ECB
:10019800F4220001B20EF324D96E0001000EF420FF
:1001A800DA6EDF500001DC5DD8A0C6D7D8C011F0E8
:1001B800D9C012F0DAC013F0DBC014F00001DD5131
:1001C800120D110EF326000EF4220001B20EF324D4
:1001D800D96E0001000EF420DA6EDF50206E205038
:1001E800156E166A176A186A82EC04F011C021F0BD
:1001F80012C022F013C023F014C024F021C0D6F09E
:1002080022C0D7F0D6C01EF0D7C01FF01200000ED3
:10021800206E1850D8B422D017C012F016C011F0B2
:100228001804136E04EC06F01F6EFF0E1B6EFF0E13
:100238001C6E18501D6E1E6A1B501D261C501E2257
:100248001D501624D96E1E501720DA6EDF501F1865
:10025800D8B402D0000E01D0010E206E2050D8B4C0
:10026800B0D016C0D9FF17C0DAFF19C0E1FF1AC015
:10027800E2FFDFCFE7FF96D020EE01F01650D92637
:100288001750DA2210EE07F01950E1261A50E22230
:10029800DFCFE7FF20EE02F01650D9261750DA22FA
:1002A80010EE02F01950E1261A50E222DFCFE7FFE4
:1002B80020EE03F01650D9261750DA2210EE03F07C
:1002C8001950E1261A50E222DFCFE7FF20EE04F0B2
:1002D8001650D9261750DA2210EE01F01950E126EF
:1002E8001A50E222DFCFE7FF20EE06F01950D92698
:1002F8001A50DA221850FA0FDF6E20EE06F0195065
:10030800D9261A50DA22DF50D8A40BD020EE04F0F8
:100318001950D9261A50DA22000EDE6E000EDD6E54
:1003280050D0050E16241B6E000E17201C6E20EEF2
:1003380004F01950D9261A50DA221BC0DEFF1CC05F
:10034800DDFF3FD020EE01F01650D9261750DA22F3
:1003580010EE01F01950E1261A50E222DFCFE7FF34
:10036800010E1ED020EE01F01650D9261750DA22C1
:1003780010EE07F01950E1261A50E222DFCFE7FF0E
:1003880020EE05F01650D9261750DA2210EE01F0AB
:100398001950E1261A50E222DFCFE7FF12D0000EF3
:1003A800206E0FD016C0D9FF17C0DAFFDF50880AB9
:1003B800D8B462D7020AD8B4C5D7010AD8B4D2D7FC
:1003C800EED7205012000600EACF05F0E1CF06F084
:1003D800E2CF07F0D9CF08F0DACF09F0F3CF0AF06F
:1003E800F4CF0BF0F6CF0CF0F7CF0DF0F8CF0EF0FE
:1003F800F5CF0FF0010E9DA6000E9EA6000EE8A0F8
:1004080003D0016A012A01D0016A0150D8B404D08E
:100418009E96010E456E59D0010EF2AA000EF2A466
:10042800000EE8A003D0016A012A01D0016A015038
:10043800D8B404D0010E476EF29447D0010E9DAC9B
:10044800000E9EAC000EE8A003D0016A012A01D07C
:10045800016A0150D8B402D09E9C37D0010E9DAAE3
:10046800000E9EAA000EE8A003D0016A012A01D05E
:10047800016A0150D8B429D0ABA405D0392AAECF2F
:1004880010F0FF0022D0ABA205D03A2AAECF10F070
:10049800AB981BD0320E425CD8B014D04350010D3B
:1004A8000101000EF324D96E0101010EF420DA6E69
:1004B800AECFDFFF432A310E436402D0000E436EF5
:1004C800422A03D03B2AAECF10F00FC0F5FF0EC072
:1004D800F8FF0DC0F7FF0CC0F6FF0BC0F4FF0AC011
:1004E800F3FF09C0DAFF08C0D9FF07C0E2FF06C062
:1004F800E1FF05C0EAFF04C0E9FF03C0FBFF02C03B
:10050800FAFF11003C0E3C6E000E3D6E000E3E6E72
:10051800000E486E000E4C6E000E466EBCEC06F0E7
:1005280022EC03F004EC07F00001DE6F12D0000E9D
:100538004C6EB1EC06F073EC06F073EC06F076D076
:10054800010E4C6E73D0000E4C6EC7EC06F0FF0027
:100558006DD00001DE51000AD8B4E9D7010AD8B439
:10056800EFD7030AF0D7ECEC06F0010E3C26000E9C
:100578003D22000E3E223C0E3C5C000E3D58000E13
:100588003E58D8A008D0000E3C6E000E3D6E000EFE
:100598003E6E70EC05F019EC06F00001DF6F00010B
:1005A800DF67BED7020E2CD084EC06F0EEEC03F029
:1005B8000001DF6F0001DF6718D0899092EC05F029
:1005C80011C025F012C026F02CEC06F050EC06F015
:1005D80011C025F012C026F03EEC06F03CEC04F009
:1005E800D0EC05F08980010E0BD00001DF05D8A4FE
:1005F80097D7C7EC06F094D7D1800300D19014D0D8
:10060800466E8ED74650000AD8B4ADD7010AD8B482
:10061800F3D7030AD8B4C8D783D7482A310E486419
:1006280003D0000E486EFF00000EEAD74C50000AB7
:10063800D8B4F3D7010AD8B4E5D7EFD70001000E34
:10064800126E0001800E116E030E136EC3EC04F0DF
:10065800236E2350D8B41ED0000180517E0AD8A43E
:1006680017D000018151226E00018251216E300E97
:10067800215C000E2258D8B00BD00001000E126E7B
:100688000001830E116E2128136EC3EC04F001D013
:10069800000E236E2350D8B40FD00001000E176E41
:1006A8000001830E166E2128186E000E1A6E240E95
:1006B800196E0BEC01F0236E2350D8A419D029D061
:1006C8002550020AD8A402D0010E08D020EE25F049
:1006D800030EDF6402D0020E01D0000E4D6E19D059
:1006E8004B5020EE2BF0DF6214D025C04AF011D019
:1006F8002450080AD8B40DD0180AD8B40AD0980AD9
:10070800D8B407D0020AD8B4DBD7010AD8B4E8D7DE
:100718001B0A12000F0ECD6E000E136E35D0000EA0
:10072800446E520E126E2A0EE82EFED7122EFCD7F9
:100738000F0ECD6ECF68E70ECE6E9E9001D0442A84
:100748009EA0FDD744500008300F146E1450800A44
:100758007F0FD8A009D0FE0E14261450800A7F0FF0
:10076800D8A017D09B280AD014500008020F146E86
:100778001450800A7F0FD8A00CD09B041F0B9B6ECF
:10078800190EE82EFED7132A1350800A600FD8A03E
:10079800C6D71350800A600FD8A019D0000E9B6EE0
:1007A800190EE82EFED7C7EC06F0520E126E2A0E6E
:1007B800E82EFED7122EFCD7C7EC06F0520E126EAA
:1007C8002A0EE82EFED7122EFCD7C7EC06F0000E34
:1007D800CD6E1200000E146EFAEC06F0510EC96EC2
:1007E800DBEC06F0C5AC06D0A4EC06F000EC07F094
:1007F800010E3DD0000E156E2BD0E4EC06F0C58638
:10080800DBEC06F01550010D350EF324D96E000E01
:10081800F420DA6EC9CFDFFF15660DD035C012F0AF
:10082800136A12BE130612AC0CD0C58A030E156EDD
:10083800010E146E07D01550030AD8A402D0C58A39
:1008480001D0C59AE4EC06F0C588DBEC06F0152A61
:100858001550800A7C0FD8A0D0D7E4EC06F000EC45
:1008680007F01404D8A402D0020E01D0000E120022
:100878004EC04BF04E2A4E6602D0010E4E6E4A68AC
:100888004BC053F049C061F0492A2EC064F02DC016
:100898001DF01DC01EF01F6A1E50656E2CC066F04C
:1008A80031C068F030C01DF01DC01EF01F6A1E5018
:1008B800696E2FC06AF034C06CF033C01DF01DC0E3
:1008C8001EF01F6A1E506D6E32C06EF0000E506E24
:1008D8001D0E516E200E206E000E176E4F0E166EF6
:1008E800000E196E200E186EF3EC04F0000E126E56
:1008F8004F0E116E2050B3EC05F01200000E196E69
:10090800000E1A6E000E1B6E000E1C6E185015108D
:1009180016101710D8B42AD0010E1D6E06D0D89024
:1009280015361636173618361D2A18AEF8D7D89049
:1009380019361A361B361C361550115C16501258CB
:100948001750135818501458D8A009D01550115ED4
:100958001650125A1750135A1850145A1980D89012
:1009680018321732163215321D2EE1D719C011F080
:100978001AC012F01BC013F01CC014F0120012C0F1
:1009880015F011C014F01350425CD8A024D0000E0A
:10099800176E19D04150010D0101000EF324D96ED4
:1009A8000101010EF420DA6E14C0E1FF15C0E2FF68
:1009B800DFCFE7FF412A310E416402D0000E416EBD
:1009C800144A152A172A1350175CD8A0E3D71350D6
:1009D800425E010E01D0000E166E16501200030E74
:1009E8001624116E000E1720126E1650030F000801
:1009F8001A6E18C0D9FF19C0DAFFDF50010DF35085
:100A08001A241624136E04EC06F01B6E18C0D9FFC6
:100A180019C0DAFFDF501C6E1C50010DF35016246C
:100A2800D96EF4501720DA6E1BC0DFFF18C0D9FF4B
:100A380019C0DAFFDF2A1200000E9B6E400ED36E3B
:100A4800000E806E000E926E939081909396819620
:100A58009398819894948294949A829A819293928A
:100A680093849E9C9D8CFA0E00D0E82EFDD78EECC8
:100A780003F0ECEC05F095EC06F0F28CF28E89921E
:100A8800898286EC02F00CEF00F001EE00F0320EE5
:100A9800EE6AE806FDE100EE80F0560EEE6AE80622
:100AA800FDE100EE2CF0220EEE6AE806FDE1C40E30
:100AB800F66E0C0EF76E000EF86E00EE4EF010EEAD
:100AC80022F00900F5CFEEFFE550E150FAE1000E03
:100AD800F86E000120EF05F08A82000EC16E200E2C
:100AE800C26E8B0EC06EC280C282D38E0300D39EAC
:100AF800C2B2FED7C350C4CF13F0146A13C014F0A7
:100B0800136A13103F6E1450406E8A92C2903FC011
:100B180011F040C012F0F3EC06F012003750156ED9
:100B2800166A15BE16061550166E156A3850152623
:100B3800000E38BEFF0E162215C013F016C014F0B2
:100B4800D89014321332D8901432133213C015F0DF
:100B580014C016F015C011F016C012F01200156E70
:100B680012C014F011C013F0000E166E0FD01650FC
:100B7800010DF3501124D96EF4501220DA6EDF50B3
:100B8800AD6EACA2FED7134A142A162A1550165C6D
:100B9800D8A0EDD700F01200000E0001D76F000EAC
:100BA8000001D66F0BD073EC06F022EC03F04A6616
:100BB80003D0010E0001D76F0001D62B080E0001EB
:100BC800D65DD8B004D00001D751D8B4ECD7120004
:100BD800E70E94168B968B98080EE82EFED700F039
:100BE800180E9412800EC76E010EC86E280EC66EBF
:100BF800000EC56E000E456E9E96A1969D8612004B
:100C08001468000E156E0BD01550010DF350112409
:100C1800D96EF4501220DA6EDF50145E152A135084
:100C2800155CD8A0F1D714501200FAEC06F0500E5B
:100C3800C96EDBEC06F0C5AC04D0A4EC06F0010EDE
:100C480006D0E4EC06F000EC07F000F0000E12000D
:100C580025C01EF026C01FF0000E0EEC00F01EC0CE
:100C680025F01FC026F025C02CF026C02DF0030E5D
:100C78002E6E120025C01EF026C01FF0010E0EECCD
:100C880000F01EC025F01FC026F025C02FF026C09A
:100C980030F0030E316E12003F0E3514136E146AD5
:100CA8001350146E136A36501326000E36BEFF0E0C
:100CB800142213C011F014C012F01200017E0004B7
:100CC80010020000000000000000FFFE000000000D
:100CD8000301000000020000000300000000000EF5
:100CE800D76E000ED66E470ED56EF294F28AD58E68
:100CF800D38E0300D39ED2EC06F0D59EF29A120052
:100D0800000ED76E000ED66E450ED56EF294F28A9E
:100D1800D58ED38E0300D39ED2EC06F0D59EF29AE0
:100D28001200948E948C240EAC6E900EAB6E480E0E
:100D3800B86E000EB06E0C0EAF6E9E9A9D8A1200B1
:100D480089868984210E116E760EE82EFED7112E23
:100D5800FCD700D08996899412008984210E116EDF
:100D6800760EE82EFED7112EFCD700D089941200FB
:100D78008988210E116E760EE82EFED7112EFCD72B
:100D880000D0899812008986210E116E760EE82E01
:100D9800FED7112EFCD700D089961200D38E0300FF
:100DA800D39E4750D8B4FDD7000E476E1200D38E9D
:100DB8000300D39E4550D8B4FDD7000E456E1200EF
:100DC800C5CF11F01F0E1116D8B4C7B4F9D7120049
:100DD800000E346E000E316E000E2E6E120011C021
:100DE80032F012C033F0030E346E1200E4EC06F059
:100DF800C580DBEC06F01200C584DBEC06F01200BF
:040E08004D50120037
:020000040020DA
:08000000FFFFFFFFFFFFFFFF00
:020000040030CA
:0E000000FF081F1CFF8301FF0FC00FE00F4021
:00000001FF
