:040000000CEF00F011
:10000800FACF02F0FBCF03F0E9CF04F0A2ED01F044
:100018004FEF04F0000E206E1850D8B422D017C04D
:1000280012F016C011F01804136EDCEC04F01F6E09
:10003800FF0E1B6EFF0E1C6E18501D6E1E6A1B50A5
:100048001D261C501E221D501624D96E1E50172026
:10005800DA6EDF501F18D8B402D0000E01D0010E9E
:10006800206E2050D8B4B0D016C0D9FF17C0DAFF20
:1000780019C0E1FF1AC0E2FFDFCFE7FF96D020EEFC
:1000880001F01650D9261750DA2210EE07F0195051
:10009800E1261A50E222DFCFE7FF20EE02F01650E9
:1000A800D9261750DA2210EE02F01950E1261A501C
:1000B800E222DFCFE7FF20EE03F01650D9261750D3
:1000C800DA2210EE03F01950E1261A50E222DFCFAF
:1000D800E7FF20EE04F01650D9261750DA2210EE6A
:1000E80001F01950E1261A50E222DFCFE7FF20EE97
:1000F80006F01950D9261A50DA221850FA0FDF6E76
:1001080020EE06F01950D9261A50DA22DF50D8A46A
:100118000BD020EE04F01950D9261A50DA22000E1E
:10012800DE6E000EDD6E50D0050E16241B6E000E1E
:1001380017201C6E20EE04F01950D9261A50DA2226
:100148001BC0DEFF1CC0DDFF3FD020EE01F01650C3
:10015800D9261750DA2210EE01F01950E1261A506C
:10016800E222DFCFE7FF010E1ED020EE01F016508D
:10017800D9261750DA2210EE07F01950E1261A5046
:10018800E222DFCFE7FF20EE05F01650D926175000
:10019800DA2210EE01F01950E1261A50E222DFCFE0
:1001A800E7FF12D0000E206E0FD016C0D9FF17C07F
:1001B800DAFFDF50880AD8B462D7020AD8B4C5D7A4
:1001C800010AD8B4D2D7EED7205012003C0E3C6EAC
:1001D800000E3D6E000E3E6E000E486E000E4C6E18
:1001E800000E466E100E47EC05F041EC02F0A0EC54
:1001F80005F00001E66F10D0000E4C6E000E466E42
:100208008990040E47EC05F016EC05F016EC05F0A5
:100218008DD0010E4C6E8AD00001E651000AD8B488
:10022800EBD7010AD8B4F5D781D088EC05F0010ED8
:100238003C26000E3D22000E3E223C0E3C5C000E89
:100248003D58000E3E58D8A008D0000E3C6E000E57
:100258003D6E000E3E6E2BEC04F0F1EC04F0000154
:10026800E86F0001E86702D0020E3ED0140E47EC9A
:1002780005F0BBD727EC05F014EC03F00001E86F9C
:100288000001E86705D0899016EC05F0030E2CD024
:100298000001E805D8A4A9D7080E47EC05F0000E20
:1002A80023D0C5EC04F011C017F012C018F07AEC96
:1002B80005F056EC05F011C015F012C016F081ECEF
:1002C80005F05EEC03F08FEC04F00001E76F00012D
:1002D800E705D8A402D0010E07D0140E47EC05F0AC
:1002E800899200F08982DBD7466E7FD78980D180DA
:1002F8000300D190D4D74650000AD8B496D7010A43
:10030800D8B4F4D7030AD8B4B5D7010AD8B4C9D732
:100318006CD7482A310E486468D7000E486E100E14
:1003280047EC05F0899200F089825FD74C50000AAB
:10033800D8B4EFD7010AD8B4DED7EBD70600EACF96
:1003480005F0E1CF06F0E2CF07F0D9CF08F0DACF19
:1003580009F0F3CF0AF0F4CF0BF0F6CF0CF0F7CF9B
:100368000DF0F8CF0EF0F5CF0FF0010E9DA6000EA0
:100378009EA6000EE8A003D0016A012A01D0016AF6
:100388000150D8B404D09E96010E456E59D0010E86
:10039800F2AA000EF2A4000EE8A003D0016A012A16
:1003A80001D0016A0150D8B404D0010E476EF2940E
:1003B80047D0010E9DAC000E9EAC000EE8A003D005
:1003C800016A012A01D0016A0150D8B402D09E9C6A
:1003D80037D0010E9DAA000E9EAA000EE8A003D0F9
:1003E800016A012A01D0016A0150D8B429D0ABA40E
:1003F80005D0392AAECF10F0FF0022D0ABA205D02D
:100408003A2AAECF10F0AB981BD0320E425CD8B06F
:1004180014D04350010D0001800EF324D96E000161
:10042800000EF420DA6EAECFDFFF432A310E4364AC
:1004380002D0000E436E422A03D03B2AAECF10F002
:100448000FC0F5FF0EC0F8FF0DC0F7FF0CC0F6FF98
:100458000BC0F4FF0AC0F3FF09C0DAFF08C0D9FFD8
:1004680007C0E2FF06C0E1FF05C0EAFF04C0E9FFDC
:1004780003C0FBFF02C0FAFF11000001000E126E5C
:100488000001B20E116E030E136EA4EC03F0236E7E
:100498002350D8B41ED00001B2517E0AD8A417D078
:1004A8000001B351226E0001B451216E300E215C5F
:1004B800000E2258D8B00BD00001000E126E0001B9
:1004C800B50E116E2128136EA4EC03F001D0000EB6
:1004D800236E2350D8B40FD00001000E176E000110
:1004E800B50E166E2128186E000E1A6E240E196E9F
:1004F8000EEC00F0236E2350D8A41DD02DD025502B
:10050800020AD8A406D0010E4D6E100E47EC05F075
:1005180023D02550030AD8A41FD0000E4D6E1C0E00
:1005280047EC05F019D04B5020EE2BF0DF6214D0C9
:1005380025C04AF011D02450080AD8B40DD0180AA2
:10054800D8B40AD0980AD8B407D0020AD8B4D7D7F2
:10055800010AD8B4E8D71B0A12000F0ECD6E000EA0
:10056800146E35D0000E446E520E136E2A0EE82E0D
:10057800FED7132EFCD70F0ECD6ECF68E70ECE6ECA
:100588009E9001D0442A9EA0FDD744500008300F09
:10059800156E1550800A7F0FD8A009D0FE0E1526BB
:1005A8001550800A7F0FD8A017D09B280AD0155065
:1005B8000008020F156E1550800A7F0FD8A00CD0C6
:1005C8009B041F0B9B6E190EE82EFED7142A14509D
:1005D800800A600FD8A0C6D71450800A600FD8A030
:1005E8001CD0000E9B6E190EE82EFED7080E47ECA5
:1005F80005F0520E136E2A0EE82EFED7132EFCD7E6
:10060800080E47EC05F0520E136E2A0EE82EFED7A0
:10061800132EFCD7080E47EC05F0000ECD6E120025
:10062800000E136E96EC05F0510EC96E69EC05F0DC
:10063800C5AC07D00C0E47EC05F09CEC05F0010E9C
:1006480038D0000E146E26D072EC05F0C58669EC21
:1006580005F01450010D350EF324D96E000EF42068
:10066800DA6EC9CFDFFF146608D035AC0CD0C58A66
:10067800030E146E010E136E07D01450030AD8A48B
:1006880002D0C58A01D0C59A72EC05F0C58869EC1C
:1006980005F0142A1450800A7C0FD8A0D5D772EC24
:1006A80005F09CEC05F01304D8A402D0020E01D08A
:1006B800000E12004EC04BF04E2A4E6602D0010EBC
:1006C8004E6E4A684BC053F049C061F0492A2EC0AB
:1006D80064F02DC01DF01DC01EF01F6A1E50656E0F
:1006E8002CC066F031C068F030C01DF01DC01EF08F
:1006F8001F6A1E50696E2FC06AF034C06CF033C098
:100708001DF01DC01EF01F6A1E506D6E32C06EF0C7
:10071800000E506E1D0E516E200E206E000E176ECC
:100728004F0E166E000E196E200E186ED4EC03F0E4
:10073800000E126E4F0E116E205070EC04F0120075
:1007480012C015F011C014F01350425CD8A024D088
:10075800000E176E19D04150010D0001800EF324D0
:10076800D96E0001000EF420DA6E14C0E1FF15C046
:10077800E2FFDFCFE7FF412A310E416402D0000ECD
:10078800416E144A152A172A1350175CD8A0E3D7CC
:100798001350425E010E01D0000E166E1650120064
:1007A800030E1624116E000E1720126E1650030F3A
:1007B80000081A6E18C0D9FF19C0DAFFDF50010D02
:1007C800F3501A241624136EDCEC04F01B6E18C0C8
:1007D800D9FF19C0DAFFDF501C6E1C50010DF35011
:1007E8001624D96EF4501720DA6E1BC0DFFF18C02C
:1007F800D9FF19C0DAFFDF2A1200000E9B6E400EE7
:10080800D36E000E806E000E926E93908190939638
:1008180081969398819894948294949A829A8192DA
:10082800939293849E9C9D8CFA0E00D0E82EFDD75F
:10083800B1EC02F0ADEC04F038EC05F0F28CF28E7D
:10084800899089928982EAEC00F00CEF00F08A82A4
:10085800000EC16E200EC26E8B0EC06EC280C282A8
:10086800D38E0300D39E01D000F0C2B2FDD7C3508F
:10087800C4CF13F0146A13C014F0136A13103F6E38
:100888001450406E8A92C2903FC011F040C012F0DE
:100898008FEC05F0120000EE80F0640EEE6AE806B8
:1008A800FDE100EE2CF0220EEE6AE806FDE10A0EEC
:1008B800F66E0A0EF76E000EF86E00EE4EF010EEB1
:1008C80022F00900F5CFEEFFE550E150FAE1000E05
:1008D800F86E000101EF04F0156E12C014F011C09B
:1008E80013F0000E166E11D01650010DF35011249E
:1008F800D96EF4501220DA6EDF50AD6E01D000F0E0
:10090800ACA2FDD7134A142A162A1550165CD8A093
:10091800EBD700F01200000E0001E56F000E000199
:10092800E46F0BD041EC02F04A6603D0010E0001DF
:10093800E56F16EC05F00001E42B130E0001E45DF1
:10094800D8B004D00001E551D8B4ECD70001E55186
:100958001200E70E94168B968B98080EE82EFED799
:1009680000F0180E9412800EC76E010EC86E280E85
:10097800C66E000EC56E000E456E9E96A1969D86AB
:1009880012003750166E3850156E15C013F016C089
:1009980014F0D89014321332D8901432133213C092
:1009A80015F014C016F015C011F016C012F01200A0
:1009B8001468000E156E0BD01550010DF35011245C
:1009C800D96EF4501220DA6EDF50145E152A1350D7
:1009D800155CD8A0F1D71450120096EC05F0500E13
:1009E800C96E69EC05F0C5AC05D00C0E47EC05F0F6
:1009F800010E06D072EC05F09CEC05F000F0000E3C
:100A08001200017E00041002000000000000000037
:100A1800FFFE0000000003010000000200000003C8
:100A280000000000000ED76E000ED66E470ED56E81
:100A3800F294F28AD58ED38E0300D39E60EC05F033
:100A4800D59EF29A1200000ED76E000ED66E450E95
:100A5800D56EF294F28AD58ED38E0300D39E60ECC5
:100A680005F0D59EF29A1200948E948C240EAC6EEA
:100A7800900EAB6E480EB86E000EB06E0C0EAF6ED8
:100A88009E9A9D8A1200126E12508912210E116EC2
:100A9800760EE82EFED7112EFCD700D01250FF0A92
:100AA8008916120035503F0B146E3650136E13C062
:100AB80011F014C012F01200D38E0300D39E4750D9
:100AC800D8B4FDD7000E476E1200D38E0300D39E14
:100AD8004550D8B4FDD7000E456E1200C5CF11F0B1
:100AE8001F0E1116D8B4C7B4F9D7120017C02CF0CE
:100AF80018C02DF0030E2E6E120015C02FF016C070
:100B080030F0030E316E1200000E346E000E316E9E
:100B1800000E2E6E120011C032F012C033F0030E18
:100B2800346E120072EC05F0C58069EC05F0120015
:0C0B3800C58469EC05F012004D5012005D
:020000040020DA
:08000000FFFFFFFFFFFFFFFF00
:020000040030CA
:0E000000FF081F1CFF8301FF0FC00FE00F4021
:00000001FF
